:10018200010A00010B0001091EC103C102C101C124
:01019200006C
:1001270075A890758920759850E4F587758DFD75CC
:090137008BFDD28ED29CF508224A
:0400060075A00522BA
:04001E0075A00A229D
:0401B60075A0062208
:0401BA0075A0092201
:0401BE00E4F5A022A2
:1000B200120127E50864616018E50864736012E5BF
:1000C200086464600CE50864776006E50864717092
:1000D20033E508249F601D24FD601E24F3601F2465
:1000E200FE600C24FC701A20031712000680121204
:1000F200001E800D1201B680081201BA800312019F
:05010200BEE4F5082237
:0601AF00E4FF0FBF14FC89
:0101B5002227
:10010700C2A4758919758811850A8C850B8A850A99
:100117008D850B8BC203C202C200C20175A88B2258
:10014000120107D2A41201AFC2A4D28EA201720280
:09015000720050F8A20092A522F1
:10016F00C2B2120140AF09EFD3940040F51200B2B2
:03017F001F80F4EA
:030003000201599E
:10015900C0E0C0D0C2AFE58CC394025002D203D232
:0601690002D0D0D0E0320C
:03000B0002000EE2
:0B000E00C2AF850A8C850B8AD200323D
:03001B000201A43B
:0B01A400C2AF850A8D850B8BD20132A3
:0300230002019443
:10019400C2AF309805859908C298309902C2993245
:03000000020026D5
:0C002600787FE4F6D8FD75812002006DA3
:1000320002016FE493A3F8E493A34003F68001F274
:1000420008DFF48029E493A3F85407240CC8C333CF
:10005200C4540F4420C8834004F456800146F6DF9E
:10006200E4800B0102040810204080900182E47EAB
:10007200019360BCA3FF543F30E509541FFEE49393
:10008200A360010ECF54C025E060A840B8E493A35A
:10009200FAE493A3F8E493A3C8C582C8CAC583CA85
:1000A200F0A3C8C582C8CAC583CADFE9DEE780BE3D
:01019300006B
:00000001FF
