:10008B00E4FEEEC39F500FE4FDE4FC0CBCDBFC0D67
:06009B00BD03F60E80EC2F
:0100A100223C
:1000A200758920759840E4F587758DFD758BFDD2B5
:0200B2008E229C
:10000300E4FB7A7175A00FE5A0640F6031E5A0549D
:100013000FFB7F0A12008BE5A0540FB50325EB24D9
:10002300F9601724FC600F24FE60071470157A77BB
:1000330080117A73800D7A6180097A6480057F0A62
:0500430012008BAF026A
:010048002295
:0800C0008F993099FDC29922CD
:10004900E4F508F91200A2120003AE07EE6461603C
:1000590012EE6473600DEE64646008EE6477600309
:10006900BE71E4E508B5061409E975F01484E5F0F4
:10007900C3940250D2AF061200C080CBE4F98E08B7
:0200890080C530
:030000000200B447
:0C00B400787FE4F6D8FD75810802004951
:00000001FF
